:100000000C9434000C9451000C9451000C94510049
:100010000C9451000C9473010C9451000C945100F9
:100020000C9451000C94FE010C9451000C9451005E
:100030000C9451000C9451000C9451000C945100FC
:100040000C9451000C9451000C9451000C945100EC
:100050000C9451000C9451000C9451000C945100DC
:100060000C947E000C94510011241FBECFEFD8E0F9
:10007000DEBFCDBF21E0A6E0B1E001C01D92A932F4
:10008000B207E1F711E0A0E0B1E0E4E0FFE002C078
:1000900005900D92A630B107D9F70E9499030C94F0
:1000A00080070C9400000F931F93CF93DF93C82F0A
:1000B000D62F5093220140932101062F10E061E0DA
:1000C00070E0C8010E9430069093200180931F01C8
:1000D00061E070E0C8010E94300690932401809393
:1000E0002301D0930601CC0FC093BA0085E480931E
:1000F000BC00DF91CF911F910F9108951F920F9235
:100100000FB60F9211242F933F934F935F936F93EA
:100110007F938F939F93AF93BF93EF93FF938091C0
:10012000B900887F8038E1F038F4803699F088365D
:1001300099F1811193C08FC0883A09F446C018F430
:10014000803A71F18BC0883B09F457C0803C09F4B8
:100150007CC084C085EC8093BC0010920A017EC0F4
:100160008091BB0090910A01E0911F01F091200164
:10017000E90FF11D808380910A018F5F80930A014E
:1001800090910601891720F485EC8093BC0066C02D
:1001900085E88093BC0062C081E0809308015EC066
:1001A0004091230150912401E0912101F09122011D
:1001B00060910A0180911F0190912001099580931F
:1001C000070185EC8093BC0049C08091070188231A
:1001D00071F081E080930901E0912301F091240105
:1001E00080818093BB0085EC8093BC0037C0109267
:1001F000BB0085E88093BC0031C08091070181116C
:1002000006C01092BB0085E88093BC0027C0809197
:100210000901E0912301F0912401E80FF11D808193
:100220008093BB00809109018F5F809309019091B9
:100230000701891730F085E88093BC001092070110
:100240000DC085EC8093BC0009C085EC8093BC0098
:100250001092070103C085ED8093BC00FF91EF91E0
:10026000BF91AF919F918F917F916F915F914F91CE
:100270003F912F910F900FBE0F901F901895219ACC
:10028000229A109289001092880010928B0010928E
:100290008A009093870080938600E0E8F0E08081F8
:1002A000806A8083E1E8F0E0808181618083089545
:1002B0008AB187618AB9E8E6F0E080818460808352
:1002C000EDE6F0E080818762808380EA8093B2006F
:1002D000E1EBF0E0808187608083E0E7F0E08081FF
:1002E0008160808308951F920F920FB60F921124A0
:1002F0002F933F934F935F936F937F938F939F932E
:10030000AF93BF93CF93EF93FF93C9B180910B014C
:10031000C82789B180930B01C5FF16C020E030E0EB
:1003200040E85FE3609118017091190180911A0112
:1003300090911B010E94CB036093180170931901E7
:1003400080931A0190931B01C6FF16C020E030E095
:1003500040E85FE3609118017091190180911A01E2
:1003600090911B010E94CB036093180170931901B7
:1003700080931A0190931B01C4FF16C020E030E067
:1003800040E85FE3609114017091150180911601BE
:10039000909117010E94CB03609314017093150193
:1003A0008093160190931701CC23B4F420E030E041
:1003B00040E85FE36091140170911501809116018E
:1003C000909117010E94CB03609314017093150163
:1003D0008093160190931701FF91EF91CF91BF91F8
:1003E000AF919F918F917F916F915F914F913F91CD
:1003F0002F910F900FBE0F901F9018951F920F9284
:100400000FB60F9211242F933F934F935F936F93E7
:100410007F938F939F93AF93BF93EF93FF9398B185
:1004200082E0892788B921E332E64FE95BE36091F6
:1004300018017091190180911A0190911B010E947D
:100440003C0460931001709311018093120190930A
:10045000130121E332E64FE95BE3609114017091EF
:10046000150180911601909117010E943C04609340
:100470000C0170930D0180930E0190930F0180EA9F
:100480008093B200109218011092190110921A0173
:1004900010921B0110921401109215011092160176
:1004A00010921701FF91EF91BF91AF919F918F91A2
:1004B0007F916F915F914F913F912F910F900FBE60
:1004C0000F901F901895892B49F060911001709141
:1004D00011018091120190911301089560910C0116
:1004E00070910D0180910E0190910F0108958F92EE
:1004F0009F92AF92BF92CF92DF92EF92FF92CF93F3
:10050000DF93EB01BC01990F880B990B0E94E60465
:10051000209110013091110140911201509113016D
:100520000E94CA0320E030E040EA50E40E949B05AC
:1005300020E030EC4AED55E40E943C044B015C01A4
:10054000BE01DD0F880B990B0E94E60420910C017F
:1005500030910D0140910E0150910F010E94CA038C
:1005600020E030E040EA50E40E949B0520E030ECBF
:100570004AED55E40E943C046B017C0120E030E030
:1005800040E85FE3C501B4010E94960518166CF0BF
:1005900020E030E0A901C501B4010E94370488239E
:1005A00064F4812C912C540108C00F2E812C912CC5
:1005B000F0E8AF2EFFE3BF2EF02D20E030E040E862
:1005C0005FE3C701B6010E94960518166CF020E0A3
:1005D00030E0A901C701B6010E943704882364F402
:1005E000C12CD12C760108C00F2EC12CD12CF0E8E3
:1005F000EF2EFFE3FF2EF02DE6E8F0E06081718141
:10060000C081D181072E000C880B990B0E94E60453
:10061000A50194010E949B050E94AE04709389007D
:1006200060938800BE01DD0F880B990B0E94E604E1
:10063000A70196010E949B050E94AE0470938B0057
:1006400060938A00DF91CF91FF90EF90DF90CF9081
:10065000BF90AF909F908F90089590938900809362
:100660008800089590938B0080938A00089590935A
:100670008700809386000895CF93DF93FC01EA0101
:10068000662309F445C09081903F09F128F49A311E
:1006900041F09B3189F03CC0913F21F1923F61F1E3
:1006A00037C06330A8F1818190E0982F882722819C
:1006B000822B0E942D032CC0633050F1818190E089
:1006C000982F88272281822B0E94320321C0633019
:1006D000F8F0818190E0982F88272281822B0E9458
:1006E000370316C06330A0F081E090911C01911196
:1006F00080E080931C010CC0633050F0818190E059
:10070000982F88272281822B90931E0180931D01B0
:1007100081E090E00E9463020E94AE04CB016FEF83
:1007200070E00E9408066883898382E0DF91CF91A0
:1007300008957894389A399A8FEF9FE00E943F018C
:100740008FEF93E00E942D038FEF9BE00E94320316
:100750000E9458014CE353E065E082E10E9453009F
:10076000C1E080911C01882341F080911D0190918E
:100770001E01BC010E94770209C02FEF88E09DE3B3
:10078000215080409040E1F700C0000088B18C27E4
:1007900088B9E7CF5058BB27AA270E94E2030C94E0
:1007A0005C050E944E0538F00E94550520F039F492
:1007B0009F3F19F426F40C944B050EF4E095E7FBEB
:1007C0000C944505E92F0E946D0558F3BA1762078E
:1007D00073078407950720F079F4A6F50C948F052C
:1007E0000EF4E0950B2EBA2FA02D0B01B90190014C
:1007F0000C01CA01A0011124FF27591B99F0593F90
:1008000050F4503E68F11A16F040A22F232F342FD7
:100810004427585FF3CF469537952795A795F04025
:100820005395C9F77EF41F16BA0B620B730B840B3A
:10083000BAF09150A1F0FF0FBB1F661F771F881FF2
:10084000C2F70EC0BA0F621F731F841F48F487954A
:1008500077956795B795F7959E3F08F0B0CF93953C
:10086000880F08F09927EE0F9795879508950E94B5
:10087000210508F481E008950E9450040C945C0561
:100880000E94550558F00E944E0540F029F45F3F44
:1008900029F00C94450551110C9490050C944B05CE
:1008A0000E946D0568F39923B1F3552391F3951BCD
:1008B000550BBB27AA2762177307840738F09F5F81
:1008C0005F4F220F331F441FAA1FA9F335D00E2EEE
:1008D0003AF0E0E832D091505040E695001CCAF75B
:1008E0002BD0FE2F29D0660F771F881FBB1F26171E
:1008F00037074807AB07B0E809F0BB0B802DBF01F5
:10090000FF2793585F4F3AF09E3F510578F00C94C3
:1009100045050C9490055F3FE4F3983ED4F386952B
:1009200077956795B795F7959F5FC9F7880F911DE4
:100930009695879597F90895E1E0660F771F881FD0
:10094000BB1F621773078407BA0720F0621B730B83
:10095000840BBA0BEE1F88F7E09508950E94B5044A
:100960006894B1110C94900508950E94750588F063
:100970009F5798F0B92F9927B751B0F0E1F0660F63
:10098000771F881F991F1AF0BA95C9F714C0B130A4
:1009900091F00E948F05B1E008950C948F05672FA8
:1009A000782F8827B85F39F0B93FCCF386957795D3
:1009B0006795B395D9F73EF49095809570956195BC
:1009C0007F4F8F4F9F4F0895E89409C097FB3EF4E7
:1009D00090958095709561957F4F8F4F9F4F99238C
:1009E000A9F0F92F96E9BB279395F695879577950A
:1009F0006795B795F111F8CFFAF4BB0F11F460FFCA
:100A00001BC06F5F7F4F8F4F9F4F16C0882311F021
:100A100096E911C0772321F09EE8872F762F05C035
:100A2000662371F096E8862F70E060E02AF09A95D0
:100A3000660F771F881FDAF7880F9695879597F9C5
:100A40000895990F0008550FAA0BE0E8FEEF16165F
:100A50001706E807F907C0F012161306E407F507B2
:100A600098F0621B730B840B950B39F40A2661F026
:100A7000232B242B252B21F408950A2609F4A140C9
:100A8000A6958FEF811D811D089597F99F6780E8D6
:100A900070E060E008959FEF80EC089500240A94D0
:100AA0001616170618060906089500240A94121649
:100AB0001306140605060895092E0394000C11F47C
:100AC000882352F0BB0F40F4BF2B11F460FF04C029
:100AD0006F5F7F4F8F4F9F4F089557FD9058440F82
:100AE000551F59F05F3F71F04795880F97FB991F8D
:100AF00061F09F3F79F0879508951216130614064A
:100B0000551FF2CF4695F1DF08C0161617061806D6
:100B1000991FF1CF86957105610508940895E894B1
:100B2000BB2766277727CB0197F908950E942105F7
:100B300008F48FEF08950E94AE050C945C050E94A6
:100B40004E0538F00E94550520F0952311F00C94C5
:100B500045050C944B0511240C9490050E946D05DD
:100B600070F3959FC1F3950F50E0551F629FF00100
:100B7000729FBB27F00DB11D639FAA27F00DB11D19
:100B8000AA1F649F6627B00DA11D661F829F2227A2
:100B9000B00DA11D621F739FB00DA11D621F839F29
:100BA000A00D611D221F749F3327A00D611D231FFF
:100BB000849F600D211D822F762F6A2F11249F574D
:100BC00050409AF0F1F088234AF0EE0FFF1FBB1F50
:100BD000661F771F881F91505040A9F79E3F51050F
:100BE00080F00C9445050C9490055F3FE4F3983E2B
:100BF000D4F3869577956795B795F795E7959F5FB9
:100C0000C1F7FE2B880F911D9695879597F908954A
:100C100097FB072E16F4009407D077FD09D00E94A9
:100C20001C0607FC05D03EF4909581959F4F0895D2
:100C3000709561957F4F0895AA1BBB1B51E107C0BA
:100C4000AA1FBB1FA617B70710F0A61BB70B881F5C
:100C5000991F5A95A9F780959095BC01CD010895EB
:100C60000F931F93CF93DF93869F8001879F100D73
:100C7000969F100D1124C8010E944C06EC010097AC
:100C800029F0A80160E070E00E947907CE01DF91B1
:100C9000CF911F910F910895CF93DF9382309105EB
:100CA00010F482E090E0E0912701F091280120E02B
:100CB00030E0C0E0D0E0309711F140815181481719
:100CC0005907C0F04817590761F482819381209732
:100CD00019F09B838A832BC090932801809327016E
:100CE00026C02115310519F04217530718F49A014F
:100CF000BE01DF01EF010280F381E02DDCCF211581
:100D0000310509F1281B390B2430310590F4129676
:100D10008D919C9113976115710521F0FB019383CF
:100D2000828304C09093280180932701FD013296AD
:100D300044C0FD01E20FF31F8193919322503109CA
:100D40002D933C933AC02091250130912601232B0D
:100D500041F4209102013091030130932601209348
:100D6000250120910001309101012115310541F447
:100D70002DB73EB74091040150910501241B350B5E
:100D8000E0912501F0912601E217F307A0F42E1B54
:100D90003F0B2817390778F0AC014E5F5F4F2417DF
:100DA000350748F04E0F5F1F5093260140932501F1
:100DB0008193919302C0E0E0F0E0CF01DF91CF9109
:100DC00008950F931F93CF93DF93009709F48CC07E
:100DD000FC013297138212820091270110912801A1
:100DE0000115110581F420813181820F931F20911B
:100DF0002501309126012817390779F5F09326014E
:100E0000E093250171C0D80140E050E0AE17BF0764
:100E100050F412962D913C911397AD012115310597
:100E200009F1D901F3CF9D01DA0133832283608177
:100E30007181860F971F8217930769F4EC0128814F
:100E40003981260F371F2E5F3F4F318320838A81E0
:100E50009B8193838283452B29F4F0932801E093AF
:100E6000270142C01396FC93EE931297ED0149912E
:100E700059919E01240F351FE217F30771F4808109
:100E80009181840F951F029611969C938E93828177
:100E9000938113969C938E931297E0E0F0E0D80133
:100EA00012968D919C911397009719F0F8018C017F
:100EB000F6CF8D919C9198012E5F3F4F820F931F2B
:100EC00020912501309126012817390769F43097C0
:100ED00029F4109228011092270102C01382128275
:100EE0001093260100932501DF91CF911F910F915F
:100EF0000895DC0101C06D9341505040E0F7089522
:040F0000F894FFCF93
:060F04000000290120009D
:00000001FF
